{
  "contractName": "Casino",
  "abi": [
    {
      "constant": true,
      "inputs": [],
      "name": "numberOfBets",
      "outputs": [
        {
          "name": "",
          "type": "uint256"
        }
      ],
      "payable": false,
      "stateMutability": "view",
      "type": "function"
    },
    {
      "constant": true,
      "inputs": [
        {
          "name": "",
          "type": "address"
        }
      ],
      "name": "playerInfo",
      "outputs": [
        {
          "name": "amountBet",
          "type": "uint256"
        },
        {
          "name": "numberSelected",
          "type": "uint256"
        }
      ],
      "payable": false,
      "stateMutability": "view",
      "type": "function"
    },
    {
      "constant": true,
      "inputs": [],
      "name": "owner",
      "outputs": [
        {
          "name": "",
          "type": "address"
        }
      ],
      "payable": false,
      "stateMutability": "view",
      "type": "function"
    },
    {
      "constant": true,
      "inputs": [],
      "name": "minimumBet",
      "outputs": [
        {
          "name": "",
          "type": "uint256"
        }
      ],
      "payable": false,
      "stateMutability": "view",
      "type": "function"
    },
    {
      "constant": true,
      "inputs": [],
      "name": "maxAmountOfBets",
      "outputs": [
        {
          "name": "",
          "type": "uint256"
        }
      ],
      "payable": false,
      "stateMutability": "view",
      "type": "function"
    },
    {
      "constant": true,
      "inputs": [
        {
          "name": "",
          "type": "uint256"
        }
      ],
      "name": "players",
      "outputs": [
        {
          "name": "",
          "type": "address"
        }
      ],
      "payable": false,
      "stateMutability": "view",
      "type": "function"
    },
    {
      "constant": true,
      "inputs": [],
      "name": "totalBet",
      "outputs": [
        {
          "name": "",
          "type": "uint256"
        }
      ],
      "payable": false,
      "stateMutability": "view",
      "type": "function"
    },
    {
      "inputs": [
        {
          "name": "_minimumBet",
          "type": "uint256"
        },
        {
          "name": "_maxBets",
          "type": "uint256"
        }
      ],
      "payable": false,
      "stateMutability": "nonpayable",
      "type": "constructor"
    },
    {
      "payable": true,
      "stateMutability": "payable",
      "type": "fallback"
    },
    {
      "constant": false,
      "inputs": [],
      "name": "kill",
      "outputs": [],
      "payable": false,
      "stateMutability": "nonpayable",
      "type": "function"
    },
    {
      "constant": true,
      "inputs": [
        {
          "name": "player",
          "type": "address"
        }
      ],
      "name": "checkPlayerExist",
      "outputs": [
        {
          "name": "",
          "type": "bool"
        }
      ],
      "payable": false,
      "stateMutability": "view",
      "type": "function"
    },
    {
      "constant": false,
      "inputs": [
        {
          "name": "numberSelected",
          "type": "uint256"
        }
      ],
      "name": "bet",
      "outputs": [],
      "payable": true,
      "stateMutability": "payable",
      "type": "function"
    },
    {
      "constant": false,
      "inputs": [],
      "name": "finishBet",
      "outputs": [],
      "payable": false,
      "stateMutability": "nonpayable",
      "type": "function"
    },
    {
      "constant": false,
      "inputs": [
        {
          "name": "winnerNumber",
          "type": "uint256"
        }
      ],
      "name": "distributePrizes",
      "outputs": [],
      "payable": false,
      "stateMutability": "nonpayable",
      "type": "function"
    }
  ],
  "bytecode": "0x606060405260006002556064600455341561001957600080fd5b604051604080610a7383398101604052808051906020019091908051906020019091905050336000806101000a81548173ffffffffffffffffffffffffffffffffffffffff021916908373ffffffffffffffffffffffffffffffffffffffff16021790555060008214151561009057816001819055505b60018111156100a157806004819055505b50506109c1806100b26000396000f3006060604052600436106100ba576000357c0100000000000000000000000000000000000000000000000000000000900463ffffffff1680632ca8c6d3146100bc57806341c0e1b5146100e557806349a53dd2146100fa5780634b1146911461014b5780636ca3fc3b1461019f5780637365870b146101c25780638701a2f0146101da5780638da5cb5b146101ef578063c38a8afd14610244578063e08a96cd1461026d578063f71d96cb14610296578063fe5e1853146102f9575b005b34156100c757600080fd5b6100cf610322565b6040518082815260200191505060405180910390f35b34156100f057600080fd5b6100f8610328565b005b341561010557600080fd5b610131600480803573ffffffffffffffffffffffffffffffffffffffff169060200190919050506103b9565b604051808215151515815260200191505060405180910390f35b341561015657600080fd5b610182600480803573ffffffffffffffffffffffffffffffffffffffff1690602001909190505061045d565b604051808381526020018281526020019250505060405180910390f35b34156101aa57600080fd5b6101c06004808035906020019091905050610481565b005b6101d860048080359060200190919050506106b3565b005b34156101e557600080fd5b6101ed610821565b005b34156101fa57600080fd5b610202610841565b604051808273ffffffffffffffffffffffffffffffffffffffff1673ffffffffffffffffffffffffffffffffffffffff16815260200191505060405180910390f35b341561024f57600080fd5b610257610866565b6040518082815260200191505060405180910390f35b341561027857600080fd5b61028061086c565b6040518082815260200191505060405180910390f35b34156102a157600080fd5b6102b76004808035906020019091905050610872565b604051808273ffffffffffffffffffffffffffffffffffffffff1673ffffffffffffffffffffffffffffffffffffffff16815260200191505060405180910390f35b341561030457600080fd5b61030c6108b1565b6040518082815260200191505060405180910390f35b60035481565b6000809054906101000a900473ffffffffffffffffffffffffffffffffffffffff1673ffffffffffffffffffffffffffffffffffffffff163373ffffffffffffffffffffffffffffffffffffffff1614156103b7576000809054906101000a900473ffffffffffffffffffffffffffffffffffffffff1673ffffffffffffffffffffffffffffffffffffffff16ff5b565b600080600090505b600580549050811015610452578273ffffffffffffffffffffffffffffffffffffffff166005828154811015156103f457fe5b906000526020600020900160009054906101000a900473ffffffffffffffffffffffffffffffffffffffff1673ffffffffffffffffffffffffffffffffffffffff1614156104455760019150610457565b80806001019150506103c1565b600091505b50919050565b60066020528060005260406000206000915090508060000154908060010154905082565b6104896108d9565b6000806000806000809450600093505b6005805490508410156105db576005848154811015156104b557fe5b906000526020600020900160009054906101000a900473ffffffffffffffffffffffffffffffffffffffff16925086600660008573ffffffffffffffffffffffffffffffffffffffff1673ffffffffffffffffffffffffffffffffffffffff16815260200190815260200160002060010154141561057c5782868660648110151561053c57fe5b602002019073ffffffffffffffffffffffffffffffffffffffff16908173ffffffffffffffffffffffffffffffffffffffff168152505084806001019550505b600660008473ffffffffffffffffffffffffffffffffffffffff1673ffffffffffffffffffffffffffffffffffffffff168152602001908152602001600020600080820160009055600182016000905550508380600101945050610499565b6105e36108b7565b60646002548115156105f157fe5b049150600090505b60648110156106aa57600073ffffffffffffffffffffffffffffffffffffffff16868260648110151561062857fe5b602002015173ffffffffffffffffffffffffffffffffffffffff1614151561069d57858160648110151561065857fe5b602002015173ffffffffffffffffffffffffffffffffffffffff166108fc839081150290604051600060405180830381858888f19350505050151561069c57600080fd5b5b80806001019150506105f9565b50505050505050565b6106bc336103b9565b1515156106c857600080fd5b600181101580156106da5750600a8111155b15156106e557600080fd5b60015434101515156106f657600080fd5b34600660003373ffffffffffffffffffffffffffffffffffffffff1673ffffffffffffffffffffffffffffffffffffffff1681526020019081526020016000206000018190555080600660003373ffffffffffffffffffffffffffffffffffffffff1673ffffffffffffffffffffffffffffffffffffffff16815260200190815260200160002060010181905550600360008154809291906001019190505550600580548060010182816107aa9190610918565b9160005260206000209001600033909190916101000a81548173ffffffffffffffffffffffffffffffffffffffff021916908373ffffffffffffffffffffffffffffffffffffffff1602179055505034600260008282540192505081905550600454600354141561081e5761081d610821565b5b50565b60006001600a4381151561083157fe5b0601905061083e81610481565b50565b6000809054906101000a900473ffffffffffffffffffffffffffffffffffffffff1681565b60015481565b60045481565b60058181548110151561088157fe5b90600052602060002090016000915054906101000a900473ffffffffffffffffffffffffffffffffffffffff1681565b60025481565b60006005816108c69190610944565b5060006002819055506000600381905550565b610c80604051908101604052806064905b600073ffffffffffffffffffffffffffffffffffffffff168152602001906001900390816108ea5790505090565b81548183558181151161093f5781836000526020600020918201910161093e9190610970565b5b505050565b81548183558181151161096b5781836000526020600020918201910161096a9190610970565b5b505050565b61099291905b8082111561098e576000816000905550600101610976565b5090565b905600a165627a7a72305820a1a6f9ed81f984dc76da12332acb09640097f47733c4abf2e3343c5dc0459afe0029",
  "source": "pragma solidity 0.4.19;\n\ncontract Casino {\n  address public owner;\n  uint256 public minimumBet;\n  uint256 public totalBet = 0;\n  uint256 public numberOfBets;\n  uint256 public maxAmountOfBets = 100;\n  address[] public players;\n\n  struct Player {\n    uint256 amountBet;\n    uint256 numberSelected;\n  }\n\n  mapping(address => Player) public playerInfo;\n\n  function Casino(uint256 _minimumBet, uint256 _maxBets) public {\n    owner = msg.sender;\n    if(_minimumBet != 0) minimumBet = _minimumBet;\n    if(_maxBets > 1) maxAmountOfBets = _maxBets;\n  }\n\n  function kill() public {\n    if(msg.sender == owner) selfdestruct(owner);\n  }\n\n  function checkPlayerExist(address player) public constant returns(bool){\n    for(uint256 i = 0; i < players.length; i++){\n      if(players[i] == player) return true;\n    }\n    return false;\n  }\n\n  function bet(uint256 numberSelected) public payable {\n    require(!checkPlayerExist(msg.sender));\n    require(numberSelected >= 1 && numberSelected <= 10);\n    require(msg.value >= minimumBet);\n\n    playerInfo[msg.sender].amountBet = msg.value;\n    playerInfo[msg.sender].numberSelected = numberSelected;\n    numberOfBets++;\n    players.push(msg.sender);\n    totalBet += msg.value;\n    if(numberOfBets == maxAmountOfBets) finishBet();\n  }\n\n  function finishBet() public {\n    uint256 numberGenerated = block.number % 10 + 1;\n    distributePrizes(numberGenerated);\n  }\n\n  function distributePrizes(uint256 winnerNumber) public {\n    address[100] memory winners;\n    uint256 count = 0;\n\n    for(uint256 i = 0; i < players.length; i++){\n      address playerAddress = players[i];\n      if(playerInfo[playerAddress].numberSelected == winnerNumber){\n        winners[count] = playerAddress;\n        count++;\n      }\n      delete playerInfo[playerAddress];\n    }\n\n    resetData();\n    uint256 winnerEtherAmmount = totalBet / winners.length;\n\n    for(uint256 j = 0; j < winners.length; j++){\n      if(winners[j] != address(0)) winners[j].transfer(winnerEtherAmmount);\n    }\n  }\n\n  function() public payable {\n    \n  }\n\n  function resetData() private {\n    players.length = 0;\n    totalBet = 0;\n    numberOfBets = 0;\n  }\n}\n",
  "sourcePath": "/home/r1/projects/casino-ethereum/contracts/contracts/Migrations.sol",
  "compiler": {
    "name": "solc",
    "version": "0.4.19+commit.c4cbbb05.Emscripten.clang"
  },
  "schemaVersion": "2.0.0",
  "updatedAt": "2018-03-07T09:08:51.309Z"
}